:020000040800F2
:1000000018040020ED010008A70D0008E10C00080D
:10001000A50D000885020008290E00080000000058
:10002000000000000000000000000000AB0D000810
:100030008702000800000000A90D0008AD0D0008AF
:10004000070200080702000807020008070200086C
:10005000070200080702000807020008070200085C
:10006000070200080702000807020008070200084C
:10007000070200080702000807020008070200083C
:10008000070200080000000007020008070200083D
:10009000070200080702000807020008070200081C
:1000A000070200080702000807020008070200080C
:1000B00007020008070200080702000807020008FC
:1000C00007020008070200080702000807020008EC
:1000D00007020008070200080702000807020008DC
:1000E00007020008070200080702000807020008CC
:1000F00007020008070200080702000800000000CD
:1001000000000000070200080000000007020008CD
:1001100007020008000000000702000807020008AC
:10012000070200080702000807020008070200088B
:10013000070200080000000000000000070200089D
:10014000070200080702000800000000000000008D
:10015000000000000000000000000000000000009F
:10016000000000000000000000000000070200087E
:10017000070200080000000000000000000000006E
:10018000000000000702000800000000000000005E
:10019000000000000000000000000000000000005F
:1001A000000000000000000007020008070200082D
:1001B000070200080702000807020008000000000C
:1001C000000000000702000800000000000000001E
:1001D0000702000807020008DFF80CD000F040F822
:1001E0000048004711100008180400200648804706
:1001F00006480047FEE7FEE7FEE7FEE7FEE7FEE70C
:10020000FEE7FEE7FEE7FEE70D0E0008D901000855
:10021000D2B201E000F8012B491EFBD27047002248
:10022000F6E710B513460A4604461946FFF7F0FFF5
:10023000204610BD30B50B46014600202022012487
:1002400009E021FA02F59D4205D303FA02F5491BA4
:1002500004FA02F52844151EA2F10102F1DC30BDBA
:10026000064C074D06E0E06840F0010394E8070003
:1002700098471034AC42F6D3FFF7B2FF981000084D
:10028000B8100008FEE7704770B5044600F0FCF8AF
:100290000546601C02D004484068044400F0F4F8AD
:1002A000401BA042FAD370BD040000202DE9F84F96
:1002B000DFF890B1002301274FF0030A4FF00F0938
:1002C0000BF1040EB6E000BF07FA03F6324070D01F
:1002D0004C68022C01D0122C10D1DC0800EB8408F1
:1002E000D8F820405D074FEAD56C09FA0CF5AC430D
:1002F0000D6905FA0CF52543C8F82050D0F80080A8
:100300005D0091F804C00AFA05F40CF0030C28EA29
:1003100004080CFA05FC4CEA080CC0F800C0D1F83F
:1003200004C0BCF1010F08D0BCF1020F05D0BCF134
:10033000110F02D0BCF1120F16D1D0F808C0D1F8BD
:100340000C802CEA040C08FA05F848EA0C08C0F8FE
:100350000880D0F804C02CEA060C0E79C6F300160B
:100360009E4046EA0C064660C668A6438C68AC40D0
:100370003443C4604C68E4005BD5334C256E45F0D3
:1003800001052566246E23F0030504F001040094A2
:100390002E4C2E19B4689D074FEA157C09FA0CF50E
:1003A000AC43B0F1904F05D0294DA84204D10125AE
:1003B00017E03EE0002514E0264DA84201D10225B9
:1003C0000FE0254DA84201D103250AE0234DA842A4
:1003D00001D1042505E0224DA84201D1052500E008
:1003E000062505FA0CF52543B560DBF800405D46AF
:1003F0004E689443F60300D514432C60DEF80040A9
:1004000075464E689443B60300D514432C600D4DD9
:1004100008352C684E689443F60200D514432C60CE
:10042000084D0C352C684E689443B60200D5144331
:100430002C605B1C0A6832FA03F47FF445AFBDE818
:10044000F88F00000004014000100240000001404D
:100450000004004800080048000C00480010004854
:10046000001400480069084000D00120704742692C
:100470000A4201D081627047816170470AB181618F
:100480007047816270470000014880687047000033
:10049000040000200248816842681144816070476E
:1004A0000400002010B50024032000F069F80020AB
:1004B00000F008F808B1012401E000F025F820461A
:1004C00010BD000070B50E4E05460024706898B14E
:1004D0004FF47A71B1FBF0F00A490968B1FBF0F012
:1004E00000F0EAFB40B9102D06D200222946501E2A
:1004F00000F026F8356000E00124204670BD0000C1
:1005000004000020100000200B4808B5016E41F0E7
:1005100001010166016E01F001010091816D41F060
:1005200080518165806D00F08050009003488168A3
:1005300021F48041816008BD00100240007000403D
:10054000F0B40E4B1B680C46C3F30223C3F107053E
:10055000042D00D90425191D072901D2002300E02C
:10056000DB1E012606FA05F1491E214099409E40F6
:10057000761E16403143F0BC00F068BC0CED00E084
:10058000064900F0070208684FF6FF03184040EAEA
:100590000220034A10430860704700000CED00E0A1
:1005A0000000FA052B492C4B0A6832214A432B499B
:1005B00040B1B0F5007F086829D020F4C06040F455
:1005C00080602CE00868C0F34120022804D051F874
:1005D000800F20F4807022E0D1F8800020F4807039
:1005E000C1F88000086820F4C06040F40070086022
:1005F000B2FBF3F0401C00E0401E4A69520501D5F1
:100600000028F9D1486940050AD503207047C0F396
:100610004120022806D051F8800F40F48070086015
:1006200000207047D1F8800040F48070C1F880004D
:10063000086820F4C06040F400700860B2FBF3F07A
:10064000401C00E0401E4A695205DBD50028F9D164
:10065000D8E700001000002040420F00007000406A
:100660002DE9F0470E4605004FF0000725D0DFF8D2
:10067000AC81D8F8000000F00F00B0420CD2D8F8DE
:10068000001021F00F013143C8F80010D8F8000025
:1006900000F00F00B04210D12968614CC80741F248
:1006A000883A5AD06868DFF87C91032808D002287D
:1006B00020682DD0400500282CDB0120BDE8F08704
:1006C00020688001F9D5E06800F00302E068C0F31B
:1006D0000310401C032A19D0534A00BFB2FBF0F0AC
:1006E000E268C2F306225043E268C2F34162521C40
:1006F0005200B0FBF2F0484517D9A06810F0F00F97
:100700000CD0880711D5A86840B10EE0474AE5E74C
:100710008003D0E700F092F8484506D9A06820F0A1
:10072000F00040F08000A0608027A068696820F099
:1007300003000843A060FFF7A7FE814606E000BF64
:10074000FFF7A2FEA0EB090151453AD8A0686968FD
:1007500000F00C00B0EB810FF2D12868810714D5AE
:10076000400703D5A06840F4E060A0602878000747
:1007700005D5A06820F4605040F4E060A060A06857
:10078000A96820F0F000084304E0802F03D1A0689E
:1007900020F0F000A060D8F80010404601F00F01F2
:1007A000B14216D9016821F00F0131430160FFF712
:1007B0006BFE074607E000BFFFF766FEC11B514511
:1007C00001D903207AE7D8F8000000F00F00B0420A
:1007D000F2D12878400705D5A068E96820F4E060E8
:1007E0000843A0602878000706D5A068296920F48E
:1007F000605040EAC100A06000F020F8A1680C4AF7
:10080000C1F30311515C01F01F01C84009490860A0
:1008100009480068BDE8F047FFF754BE00200240D9
:100820000010024000B4C4040024F40000366E013D
:10083000881000081000002004000020184910B59E
:100840008868C0F381021748012A0BD08A68164BCA
:10085000C2F38102022A06D08A68C2F38102032A07
:1008600003D0002010BD184610BDCA6802F0030472
:10087000CA68C2F30312521C032C02D0B0FBF2F080
:1008800001E0B3FBF2F0CA68C968C2F30622504324
:10089000C1F34161491C4900B0FBF1F010BD0000FB
:1008A000001002400024F40000366E012DE9F843E8
:1008B00004007AD02078FA4DC00747D0A868E968CC
:1008C00000F00C0001F003010C2802D0082817D01A
:1008D00001E0032914D06068B0F5803F17D0B0F56F
:1008E000A02F286817D020F480302860286820F4D2
:1008F000802028606068E0B1FFF7C6FD064614E07E
:100900002868800322D560680028D2D01EE02868BD
:1009100040F48030EDE740F480202860F7E700BF26
:10092000FFF7B2FD801B642870D828688003F7D5D4
:100930000CE0FFF7A9FD064605E000BFFFF7A4FDA8
:10094000801B6428F0D828688003F7D420788007BB
:100950004CD5A868E96800F00C0001F003010C28F0
:1009600002D004280DD001E002290AD0E068002856
:1009700028682BD040F480702860FFF785FD06467C
:1009800019E02868400502D5E068002891D0686821
:10099000217C20F0FE4040EA01606860C1480068A8
:1009A000FFF790FD002800D120E076E1FFF76CFD15
:1009B000801B0228B8D828684005F7D56868217CD4
:1009C00020F0FE4040EA016068600FE020F4807093
:1009D0002860FFF759FD064605E000BFFFF754FD0C
:1009E000801B0228A0D828684005F7D4207800078B
:1009F00029D560690028D5F8940013D040F0010093
:100A0000C5F89400FFF740FD064606E090E000BF01
:100A1000FFF73AFD801B022886D8D5F8940080079E
:100A2000F6D510E020F00100C5F89400FFF72CFD8A
:100A3000064604E0FFF728FD801B022878D8D5F889
:100A400094008007F6D42078400761D5A86D002671
:100A5000C00008D4A86D40F08050A865A86D01269C
:100A600000F08050009090480168C90511D40168D9
:100A7000804641F480710160FFF706FD074604E0FF
:100A8000FFF702FDC01B022852D8D8F80000C005AD
:100A9000F6D5A068012815D00528D5F8900016D005
:100AA00020F00100C5F89000D5F8900020F0040077
:100AB000C5F89000A06841F28838B8B1FFF7E4FCAF
:100AC00007460EE0D5F8900040F00100F0E740F056
:100AD0000400C5F89000F5E7FFF7D6FCC11B4145BF
:100AE00026D8D5F890008007F6D50CE0FFF7CCFCAF
:100AF000074604E0FFF7C8FCC11B414518D8D5F8EC
:100B000090008007F6D41EB1A86D20F08050A86533
:100B10002078800629D5A0690028D5F8980013D040
:100B200040F00100C5F89800FFF7AEFC064606E06D
:100B300077E000BFFFF7A8FC801B022877D8D5F824
:100B400098008007F6D510E020F00100C5F8980065
:100B5000FFF79AFC064604E0FFF796FC801B02288C
:100B600065D8D5F898008007F6D4E069F0B3A96895
:100B7000C1F38101032961D00228286820F0807028
:100B800028600BD0E86820F00300E860E868474977
:100B90000840E860FFF778FC04464BE0FFF774FC80
:100BA000064604E0FFF770FC801B02283FD8286847
:100BB0008001F7D4F4E908016FF00F0202EB011194
:100BC0000843218A5204490802EB4151A26841EAD4
:100BD00002210843217D4FF07E42490802EB41612A
:100BE0000843217B40EAC160E96800E062E0304AE6
:100BF00011400843E860286840F080702860E86889
:100C000040F08070E860FFF73FFC044605E000BF5D
:100C1000FFF73AFC001B022809D828688001F7D5A5
:100C200048E004E0FFF730FC001B022802D9032053
:100C3000BDE8F88328688001F4D43BE00128F7D0B0
:100C4000E868226A00F00301914226D1616A00F04F
:100C5000F0020901103991421FD1A26A00F4FE414D
:100C6000B1EB022F19D194F82C2000F07841B1EBB0
:100C7000C26F12D1218E00F4C00249084905A1F5C6
:100C80000011914209D194F8341000F0C060490875
:100C90004906A1F1007181420CD00120C8E7000093
:100CA000001002400400002000700040FFFFEEFE34
:100CB0000C809F010020BBE710B5401EB0F1807F83
:100CC00001D3012010BD4FF0E02460610F216017B7
:100CD00000F0BCF80020A06107202061002010BDBA
:100CE000FEE7000030B587B014216846FFF797FA99
:100CF0002948C16C41F00401C164C16C01F00401D8
:100D00000591C16C41F02001C164C16C01F020016A
:100D10000591C16C41F00101C164C16C01F0010198
:100D20000591C16C41F00201C164C06C4FF0904567
:100D300000F002000590002221212846FFF79EFBCB
:100D40004FF40050009015480024CDE90104694695
:100D50001348FFF7ABFA212000900120CDE90104F0
:100D6000694628460394FFF7A1FA0C21022000915E
:100D7000CDE90104CDE9034169462846FFF796FA1B
:100D80004FF48070CDE90004694628460294FFF7CD
:100D90008DFA07B030BD00000010024000001110B5
:100DA00000080048FEE7704770477047FFF772BBC6
:100DB00010B594B038216846FFF731FA14210EA817
:100DC000FFF72DFA4FF40070FFF7ECFB01200090C5
:100DD0000004019002200324CDE907040A21CDE993
:100DE0000A100C900D9009946846FFF75FFD0F20E4
:100DF000CDE90E0490201090002011900146129031
:100E00000EA8FFF72DFC14B010BD000005480168C6
:100E100041F47001016003494FF0006080390860BF
:100E20007047000088ED00E0FEE700000FB4054BBE
:100E300010B503A9044A029800F028F810BC5DF828
:100E400014FB0000F50F0008000000200907090E40
:100E5000002804DB00F1E02080F80014704700F067
:100E60000F0000F1E02080F8141D704702E008C870
:100E7000121F08C1002AFAD170477047002001E014
:100E800001C1121F002AFBD1704700002DE9FF4F5E
:100E900089B09B460446002506E025280BD05A461B
:100EA0000B999047641C6D1C20780028F5D10DB07B
:100EB0002846BDE8F08F0027B8460122474900E0E8
:100EC000074314F8013F203B02FA03F00842F7D130
:100ED00020782E2819D114F8010F47F004072A288A
:100EE0000ED06FF02F022078A0F1300109290CD824
:100EF00008EB880102EB410100EB0108641CF2E7FA
:100F00000A98641C50F8048B0A9020780028CED0F0
:100F1000642808D0692806D075281ED05A460B9937
:100F200090476D1C58E00A994FF00A0901C90A91CF
:100F3000002802DA40422D2102E0390504D52B2198
:100F40008DF82010012103E0F90704D02021F7E7F4
:100F50008A4608AE0DE00021FAE70A994FF00A0927
:100F600001C90A91F7E74946FFF764F9303106F8FD
:100F7000011D0028F7D1ADEB060000F1200978072C
:100F800001D44FF00108C84502DDA8EB090000E0DC
:100F900000208046002706E008A85A46C05D0B994D
:100FA00090476D1C7F1C5745F6DB04E030205A4605
:100FB0000B9990476D1CB8F10001A8F10108F5DC10
:100FC00005E016F8010B5A460B9990476D1CB9F1D4
:100FD0000001A9F10109F4DC641C65E7092801009E
:100FE00003E00821491E09B2FCD2401EC0B2F8D26B
:100FF0007047000005490968C90105D54FF06041F7
:101000000A68002AFCD0087070470000FCED00E080
:10101000FFF748FAFFF7CCFEFFF764FE4FF4807449
:101020004FF0904642F2107740F2DC580122114610
:1010300035463046FFF722FA0F20FFF7D1FF214651
:101040002E462846FFF70EFA0028F8D0002500E0CB
:101050006D1C21463046FFF705FA0028F8D105EB54
:101060000510B0FBF7F105A0FFF7E0FE20213046A8
:10107000FFF7FDF94046FFF707F9D7E7636F756E95
:10108000743D25640D0A000000000000000000000F
:101090000102030406070809B81000080000002038
:1010A000140000006C0E0008CC1000081400002092
:1010B000040400007C0E0008000000001000000086
:0C10C00001000000000000000024F4000B
:04000005080001D915
:00000001FF
